:020000021000EC
:10C00000008000200DCF010049CF01004BCF01007F
:10C010000000000000000000000000000000000020
:10C020000000000000000000000000004DCF0100F3
:10C0300000000000000000004FCF010051CF0100C0
:10C0400053CF010053CF0100C911020053CF0100AB
:10C0500053CF01000000000053CF010053CF010077
:10C0600053CF010053CF0100310B020053CF010029
:10C0700053CF010053CF010053CF010053CF010034
:10C0800053CF0100DD13020053CF010053CF010055
:10C0900053CF01004D340200DD07020053CF0100F1
:10C0A00053CF010053CF010000000000000000004A
:10C0B0000000000000000000000000000000000080
:10C0C00010B5064C2378002B07D1054B002B02D06E
:10C0D000044800E000BF0123237010BDC4280020E5
:10C0E000000000008895020008B5084B002B03D023
:10C0F0000748084900E000BF07480368002B03D049
:10C10000064B002B00D0984708BDC0460000000039
:10C1100088950200C8280020C428002000000000E4
:10C12000164B002B00D1144B9D46402292029A1AC6
:10C13000924600218B460F461348144A121A08F003
:10C14000D9FC0F4B002B00D098470E4B002B00D092
:10C1500098470020002104000D000D48002802D05F
:10C160000C4800E000BF08F04FFC2000290002F05E
:10C17000C2FE08F033FCC04600000800008000202A
:10C180000000000000000000C42800203030002023
:10C19000000000000000000008B50368002B01D07B
:10C1A000081C984708BD08B50368002B01D0081C7F
:10C1B000984708BD08B50368002B01D0081C9847B4
:10C1C00008BD08B50368002B01D0081C984708BDBE
:10C1D00008B50368002B01D0081C984708BD08B5B6
:10C1E0000368002B01D0081C984708BD10B5054B0B
:10C1F000041C036002F013FE201C02F061FE201CF0
:10C2000010BDC046208C020010B5041CFFF7EEFFE5
:10C21000201C07F0F5F9201C10BD000038B5074CB4
:10C22000051C0749201C00F03FFFAB78012B03D110
:10C23000201C044900F038FF38BDC046BC2C00204B
:10C24000248502002E85020070B51D1CC37F041CCE
:10C250005E1901201D2E13DC2818E054E37F013302
:10C26000DBB2E377E154E07F111C0130C0B2E0772C
:10C270002A1C201808F01CFCE37F0020ED18E5774D
:10C2800070BD0000F7B58E1EF6B2051C089C132E7B
:10C2900022D80120071CB7403E1C284F3E421BD02D
:10C2A000E97FCE1869181F2E46DC601C814203D935
:10C2B0000878C8540139F8E70021C8B2984204D27E
:10C2C000565C601886700131F7E722789A18227060
:10C2D000EA7F9B18EB770FE02078061C013EF6B250
:10C2E0000090B3420AD10021C8B2984204D2555CF2
:10C2F000601885700131F7E700201DE0E87F801BA2
:10C30000C0188446674601201F2F15DCE87F84464D
:10C31000B01C201801906746E819019F874204D29B
:10C32000A019807820700134F0E70098C743674473
:10C33000EF77281CFFF788FFFEBDC0463F000800CE
:10C34000F7B5C67F0024B4420CD205196F788F422E
:10C3500003D10095FFF796FF06E0055D01356419EE
:10C36000E4B2F0E7FFF770FFFEBD70B5061C8AB0BF
:10C370000A360C1C2222311C051C01A808F098FB6F
:10C380006A460121033201A80B1C1470FFF7D8FF85
:10C39000041E0DD12B682A1C34329B6F281C01A966
:10C3A0009847041E04D1301C01A9222208F080FB0A
:10C3B000201C0AB070BDF0B5051C8DB00A35161CE6
:10C3C0000F1C2222291C041C03A8019308F070FBF7
:10C3D000321C03A8391C019BFFF7B2FF061E0DD1CA
:10C3E0002368221C34329B6F201C03A99847061E29
:10C3F00004D1281C03A9222208F05AFB301C0DB0DE
:10C40000F0BD70B50123041C0370261CC018031C6A
:10C41000113600251D700133B342FAD10123658224
:10C420002370AA4208D10B1C10338B4207D0013B6A
:10C430001A7802700130F8E7102208F042FBA37B63
:10C44000627B1B021343201C638270BDF0B585B074
:10C4500001930AAB1E880BAB1B78451C02930EABF5
:10C460001B78041C03930B78171C03704B8A102253
:10C4700043820131281C08F01BFB019A039B628355
:10C48000029A2683002623776761E683A31CEA7756
:10C490000122DA770C9B0D9A6362231C28330C254A
:10C4A000201C1A705E709E70311C2A1C2C3008F003
:10C4B00021FB074B201CA363E663311C2A1C403080
:10C4C00008F018FB034B201C2665E36405B0F0BDA3
:10C4D000A7C1010099C1010010B501F0BDF8011C10
:10C4E00008C9041CDB6F9847002804D1583423780E
:10C4F00001221343237010BD10B5064C0649201CC1
:10C5000000F0D2FD0549201C00F0CEFD0448FFF7E5
:10C51000E3FF10BDBC2C00203D8502004A850200CF
:10C520009C2B002010B50C1C01F0A6F80368211C00
:10C530001B68984710BDF8B50E1C151C1C1C01F09B
:10C540009BF80368311C5F682A1C231CB847F8BDA0
:10C55000F7B51C1C08AB0E1C151C1F7801F08CF8DD
:10C5600003680097DF68311C2A1C231CB847FEBDF6
:10C5700070B5061C0D201D1C141C00F03FFF311C63
:10C580000B2000F045FE291C0C2000F037FF0A208C
:10C59000211C00F03DFE70BD08B50B20002100F00D
:10C5A00037FE00210A2000F033FE034B034A1978BE
:10C5B000117000221A7008BDC0290020702C0020C4
:10C5C00038B564250024102000F038FF013D241800
:10C5D000002DF8D14620A042A441604238BD0000A1
:10C5E00010B5041CFFF7ECFF031E0AD10121221C29
:10C5F000201CFFF7BDFF034B034A1978117003227B
:10C600001A7010BDC0290020702C002038B5642598
:10C6100000240F2000F012FF013D2418002DF8D156
:10C620004620A042A441604238BD000010B5041C61
:10C63000FFF7ECFF011E0AD1221C0123201CFFF78B
:10C6400097FF034B034A1978117004221A7010BD2A
:10C65000C0290020702C002038B56425002411204A
:10C6600000F0ECFE013D2418002DF8D14620A04238
:10C67000A441604238BD000010B5041CFFF7ECFF78
:10C6800000280BD101210B1C221C201CFFF770FF7E
:10C69000034B044A1978117002221A7010BDC0466B
:10C6A000C0290020702C002008B5FFF789FF012861
:10C6B00005D0FFF7ABFF012801D0002000E00120EA
:10C6C00008BD000010B5041CFFF7EEFF031E0AD1E1
:10C6D000191C221C201CFFF74BFF034B034A19783F
:10C6E000117001221A7010BDC0290020702C00208A
:10C6F00038B52C4C051C2C49201C00F0D5FC2B4ACD
:10C700006B88D28B9A4206D1FFF746FF201C28493E
:10C7100000F0CAFC45E0274AD18B99420BD1264D47
:10C72000264B2A1C2648FFF706FF2878FFF7CAFF8A
:10C73000201C24492EE0244AD18B99420BD11E4D56
:10C740001E4B2A1C1E48FFF7F6FE2878FFF794FFC1
:10C75000201C1E491EE01E4AD18B99420BD1164D5A
:10C76000164B2A1C1648FFF7E6FE2878FFF738FF1D
:10C77000201C18490EE0184AD18B994211D10E4D58
:10C780000E4B2A1C0E48FFF7D6FE2878FFF74EFF07
:10C790001249201C00F088FC2978201C0A2200F095
:10C7A000C0FC38BDBC2C00205E850200382900206A
:10C7B000F7850200382A00203E2B0020422B002063
:10C7C0009C2B00207F850200E82A00208A85020039
:10C7D000902A002092850200442B00209E850200B2
:10C7E00008B5C823021C9B0001209A4244DCAF23F9
:10C7F0009B0004209A423FDC9B1A96220020920064
:10C80000934239DC1D4A93422EDCFA2252009342B5
:10C8100020DCE1225200934217DCC82252009342EE
:10C8200002DD181C0E2125E0AF225200934208DCE5
:10C8300096225200934202DD181C12211AE0C82BE6
:10C8400001DD181118E0962B02DD181C0C2111E0F7
:10C85000642B02DD181C0A210CE03C2B02DD181CA5
:10C86000092107E01E2B01DDD81005E0002B03D0C5
:10C87000181C072108F0F0FD08BDC0462602000084
:10C8800038B5052500240E2000F05EFC013D24187B
:10C89000012000F084FD002DF5D10521201C08F0B9
:10C8A000DBFDFFF79DFF38BD37B5FFF789FE0B4B6A
:10C8B0000B4CD98B00236070221C00930948022383
:10C8C000FFF746FE084D0949281C00F0EDFB281C27
:10C8D00061780A2200F025FC37BDC0461C2C0020E0
:10C8E000982B00209C2B0020BC2C0020C886020026
:10C8F00037B5FFF78BFE0B4B0B4CD98B00236070C9
:10C90000221C009309480223FFF722FE084D094923
:10C91000281C00F0C9FB281C61780A2200F001FCE9
:10C9200037BDC046E0280020982B00209C2B00201B
:10C93000BC2C0020E886020037B5FFF78DFE0B4BBC
:10C940000B4CD98B00236070221C009309480223F2
:10C95000FFF7FEFD084D0949281C00F0A5FB281C27
:10C9600061780A2200F0DDFB37BDC046C4290020F3
:10C97000982B00209C2B0020BC2C00200987020053
:10C9800037B5FFF77DFF0B4B0B4CD98B0023607045
:10C99000221C009309480223FFF7DAFD084D0949DC
:10C9A000281C00F081FB281C61780A2200F0B9FBEA
:10C9B00037BDC046A42B0020982B00209C2B0020C4
:10C9C000BC2C00202B87020008B50649064800F061
:10C9D0006BFBFFF769FFFFF78BFFFFF7ADFFFFF77B
:10C9E000CFFF08BD4F870200BC2C002070B5234C40
:10C9F0008AB0201C00F030FE0621FFF7B6FC201C98
:10CA000000F02AFE08211E4A0423FFF7D4FC201C54
:10CA100000F022FE07211B4A1023FFF7CCFC201C4C
:10CA200000F01AFE01AC031C3433221C061C23CB7D
:10CA300023C223CB23C203CB03C21B88092113804B
:10CA4000201C114A0B1CFFF77BFC351C34350028D9
:10CA500011D13368311C0A319B6F301C221C98475E
:10CA6000002808D12B1C07CC07C325CC25C306CC36
:10CA700006C322881A800AB070BDC0469C2B0020D5
:10CA80008D8702001485020089870200F0B55C489A
:10CA90005C4B8DB00021836102ADC1625A4907AC85
:10CAA00002F0C5F900210C22281C08F023F8231CF1
:10CAB0002A1CC1CAC1C30021544B21615448211C06
:10CAC000E36000F071FD00210C22281C08F012F830
:10CAD0004F4800F0C1FD4F4E01900296231C2A1CC6
:10CAE00083CA83C3142006F077FD0796031C221C1B
:10CAF000C2CAC2C3484B0022C360019B0261983383
:10CB00001A68434F002A00D0026100210C221860ED
:10CB1000281C07F0EFFF381C00F09EFD3F4E0190EF
:10CB20000296231C07CD07C3142006F055FD079677
:10CB3000031C221C62CA62C3394BC3600023036119
:10CB4000019BA4331A68002A00D002611860381CC7
:10CB500000F092FD00210C22051C201C07F0CAFFEA
:10CB6000142006F039FD2F4A0792021C4ACC4AC213
:10CB70002D4AC26000220261AA69002A00D0026127
:10CB8000A861FFF733FF381C00F066FD0023037136
:10CB90002649381CFFF7C6FC2549381CFFF7C2FCA4
:10CBA000381C00F059FD036822495B6B9847381C1C
:10CBB00000F052FD036804215B6C9847381C00F0BC
:10CBC0004BFD0368041C9B689847031C962040009B
:10CBD000834203D92368201C9B689847FA239B0053
:10CBE0001549584308F0EAFBE080381C00F034FD9A
:10CBF00000230381381CFFF76FFC0DB0F0BDC04669
:10CC00008C290020C9C9010040420F00B5C10100B4
:10CC10009C2B00201DC20100D1C10100F9C40100FC
:10CC2000DFC10100F1C60100C3C10100F82B0020E3
:10CC3000182A0020898702007102000010B50B201D
:10CC4000012100F0B3FB0D20012100F0AFFB0A2011
:10CC5000012100F0ABFB01210C2000F0A7FB082014
:10CC600000F06AFAFFF798FC1020022100F09EFB0A
:10CC70000F20022100F09AFB1120022100F096FB08
:10CC80000E20002100F092FBFFF700FF054C9621DB
:10CC9000201C890100F076FC201C034900F004FAF6
:10CCA00010BDC046BC2C00209287020008B5024887
:10CCB00000F0F2FC08BDC0469C2B0020F0B500211E
:10CCC0008DB06C4800F088FC6B4D0024281C02F0ED
:10CCD000D1F86A4BAC612B60EC62281C684907AD47
:10CCE000684A06F0A5FC221C281C67490126FFF7AC
:10CCF00088FB02270C2301930496331C291C009700
:10CD000002940394614A6248FFF7A0FB221C281C8E
:10CD10006049FFF776FB0C2301930496331C291C12
:10CD20000097029403945C4A5C48FFF78FFB221C37
:10CD3000281C5B49FFF765FB0C2301930496331C09
:10CD4000291C009702940394564A5748FFF77EFB2C
:10CD5000221C281C5549FFF754FB0C230193049611
:10CD6000331C291C009702940394514A5148FFF741
:10CD70006DFB221C281C5049FFF743FB0C23019339
:10CD80000496331C291C0097029403944B4A4C4888
:10CD9000FFF75CFB221C281C4A49FFF732FB1023DB
:10CDA00001930496331C291C009702940394464A6D
:10CDB0004648FFF74BFB221C281C4549FFF721FB87
:10CDC000102301930496331C291C009702940394AA
:10CDD000404A4148FFF73AFB221C281C3F49FFF715
:10CDE00010FB102301930496331C291C0097029416
:10CDF00003943B4A3B48FFF729FB221C281C3A4975
:10CE0000FFF7FFFA102301930496331C291C0097A7
:10CE100002940394354A3648FFF718FB221C281C5D
:10CE20003449FFF7EEFA344E2B78694633706B8A3B
:10CE3000701C73821D31102207F03AFE05233375F2
:10CE40002E4B221C281C2E49B361B483FFF7D9FA5C
:10CE50002C4E2B78694633706B8A701C73821D319F
:10CE6000102207F025FE04233375274BB483B361EA
:10CE70000DB0F0BD9C2B00208C290020208C0200DE
:10CE8000EDC1010000280020B9870200182C002005
:10CE900038290020F48402008C2A0020382A00203F
:10CEA000E48402003C2B0020E82A002009880200CC
:10CEB000402B0020902A0020E9870200BC29002096
:10CEC000442B0020C987020034290020A42B002015
:10CED000D9870200BE2900201C2C0020A98702004F
:10CEE000712C0020E0280020F9870200E42A0020AD
:10CEF000C429002004850200F82B0020042800200B
:10CF0000D4840200182A002018280020084802684B
:10CF100003210A4302600749074A084B9B1A03DDB5
:10CF2000043BC858D050FBDC054880470548004703
:10CF3000240500409495020000280020C428002009
:10CF400055CF010021C10100FEE7FEE7FEE7FEE745
:10CF5000FEE7FEE7334B10B51A78181C012A12D1F0
:10CF6000314B1B6819070ED1304BF0221B68E024AF
:10CF7000191C1140234204D12D4B1B68134202D1CE
:10CF800040E03029F8D00378012B0DD1264A1268F1
:10CF9000110709D1254A1168F0221140402903D117
:10CFA00023490968114235D08023A321DB050122E2
:10CFB000C9005A501F49002088609A601E4B8A6839
:10CFC000002A2DD1C822C046C046C046C046C04631
:10CFD000C046C046C046C046C046C046C046C04621
:10CFE000C046013A002AEED1013B002BE7D1802256
:10CFF000A320D205C0001350012393608B68002B3F
:10D00000FCD00DE00D490E4A116080210D4A090245
:10D010001160B8E7C1228021D200C9058B50C3E757
:10D0200010BDC046E00F00F0E40F00F0E80F00F084
:10D03000EC0F00F0FC00004088130000DFFF07C089
:10D0400004050040186C0040F8B5061C0C1C8F1835
:10D050000025BC4207D0336821781B68301C9847F4
:10D0600001342D18F5E7281CF8BD38B5051C0C1C3B
:10D07000081E07D007F072FE2B68021C5B68281C94
:10D08000211C984738BD08B503681B68984708BD40
:10D0900038B50D21041CFFF7F6FF0A21051C201CE2
:10D0A000FFF7F1FF401938BD38B5041CFFF7DDFF6D
:10D0B000051C201CFFF7ECFF281838BDF0B58BB01D
:10D0C000151C09AB0022071C0E1C1A70012D00D87C
:10D0D0000A256C462334301C291C08F06FF9031C08
:10D0E0006B43F61AF6B2211C092E01D8303600E047
:10D0F0003736F6B22670013C002801D0061CEAE75C
:10D10000381CFFF7B2FF0BB0F0BD08B5002A04D100
:10D110000368C9B21B68984702E0D2B2FFF7CEFF9E
:10D1200008BD38B5041CFFF7F0FF051C201CFFF7F5
:10D13000AFFF281838BD0000102801D8014B187027
:10D140007047C0463428002010B504F057FA041C7C
:10D15000601C04D1244825495F2203F051FB631E63
:10D16000DBB2062B3DD8224B01221968214B8900E6
:10D170001B68101C5B011943022319431E4B1B68DB
:10D180001B041943631C984003020C1C1C431B49DD
:10D190001B4B50425C50C22189005850A021C9004D
:10D1A0005A501A60C046C04614498022D2009A588C
:10D1B000D007FAD4A1221248D2008058114A12781E
:10D1C0000A2A07D0092A03D80A24A21AD04001E06B
:10D1D0000A3A9040A022D20000249C505A585A503B
:10D1E00000E0094810BDC0461988020030880200DE
:10D1F0003028002028280020742C0020040500007E
:10D20000007000402C280020FFFF000000000000FC
:10D21000F0B589B0071C0C1C04F0F0F9061C701C5A
:10D2200004D153485349852203F0EAFA524B0021B6
:10D230005956B1420AD001229A56B24208D09B7880
:10D240005BB2B34206D001310AD124E0002302E0F0
:10D25000012300E00223494A1078082806D10DE096
:10D2600001321AD001337AD1022517E0082802D9F9
:10D270000838C44002E00822101A844007AD2B7021
:10D28000201C08F04DFF3E4908F050FA011C281CF4
:10D2900003F0A4FD63E0002500E001250195002CCA
:10D2A0000ED13548FF23019A435507A8027003F0B9
:10D2B00001FD381C012100F079F8381C211C2DE0FB
:10D2C0002E4B18780AF0FAFC021C0B1C2749264842
:10D2D00006F0E6F902900391201C0AF0EFFC234BC4
:10D2E000214A04900591029803990AF07FF9021CE3
:10D2F0000B1C0498059908F045F9002811D01E4828
:10D30000FF234355019B6A4607A8137703F0D2FC1D
:10D31000381C012100F04AF8381C012100F06EF899
:10D320001DE0019A68460277311C07A803F0E8FD6A
:10D33000124B1878082806D002D90838C44002E0F9
:10D340000823181A8440201C08F0EAFE0C4908F053
:10D35000EDF9011C07A803F041FD074B5E5509B02C
:10D36000F0BDC046C046C0460000000000000040BE
:10D3700019880200308802002D280020342800205F
:10D3800000007F43C046C04638B5041C04F090F846
:10D39000051C04F08DF8401BA042FAD338BD08B537
:10D3A000FA239B005843FFF7EFFF08BD30B587B065
:10D3B0000C1C04F023F9051C431C04D10D480E4934
:10D3C0000F2203F01DFA6B461D70012C06D0002CB5
:10D3D00004D0022C0BD10021032501E0211C0025E3
:10D3E000684603F047FB6846291C03F03DFB07B085
:10D3F00030BDC04619880200AA88020038B50D1C4D
:10D4000004F0FCF8041C431C04D1094809492322F8
:10D4100003F0F6F90122A023A240DB05141C002D25
:10D4200002D0A121C90000E003495C5038BDC046CC
:10D4300019880200AA8802000C05000010B504F04B
:10D44000DDF8041C431C04D106480749302203F0D0
:10D45000D7F9A223A022DB00D205D0580123E04057
:10D46000184010BD19880200AA88020001207047E8
:10D47000054B1A1C4032107841331B784030C01ADB
:10D480003F2318407047C046782C0020084A111CE2
:10D49000101C413140300B780078984205D0D05CA8
:10D4A00001333F2213400B7001E0012040427047DE
:10D4B000782C0020064B1A1C191C4132403112787E
:10D4C0000978914201D0985C01E001204042704708
:10D4D000782C002007B5034B6846009303F0E8FE64
:10D4E0000EBDC0460020004007B5044B00936846BF
:10D4F00003F0ECFE0028FAD007BDC0460020004033
:10D5000030B5074B3F211A1C40321478651C294066
:10D510001D1C41352D788D4201D01855117030BD3C
:10D52000782C002000234360FA239B008360024B89
:10D53000083303607047C0462889020073B5101C89
:10D540001E1C0C1C04F05AF8051C301C04F056F884
:10D550000B4B2A1C011C6846009303F0BFFD0123FE
:10D560005B421A1C6846002103F0B8FE6846211C85
:10D5700003F090FD68460021012203F053FE73BDC5
:10D580000020004008B500220123FFF7D7FF08BDA7
:10D5900008B5034804F03CF80248FFF7C3FF08BD94
:10D5A000782C0020BC2C0020F0B5021C40681268CA
:10D5B0000B1C016889B00C68019203AA151C1E1C83
:10D5C000A44692CE92C5DB680199D3600023136113
:10D5D000E04709B0F0BD000038B50023041C01602D
:10D5E000436099420AD1064D2B68002B02D100F00E
:10D5F00041FD286022689300ED586560201C38BD0D
:10D60000D82C0020F8B500280DD1104C2668002E2B
:10D6100007D1082005F0E0FF311C051CFFF7DCFFF7
:10D620002560206810E00A4D01272E68094C3E4015
:10D6300009D1281C05F0EAFF002804D0281C276027
:10D64000666005F0F2FF201CF8BDC046CC2C00201F
:10D65000DC2C0020D02C0020436810B5041C002BCB
:10D6600002D1044803F029F9606803681B699847F0
:10D6700010BDC04650890200436810B5041C002B41
:10D6800002D1044803F019F9606803689B69984760
:10D6900010BDC04650890200436810B5041C002B21
:10D6A00002D1044803F009F960680368DB6A98470F
:10D6B00010BDC0465089020070470220704702200A
:10D6C00070470020704700207047000000487047F6
:10D6D000FFFF0000022070470220704702207047C1
:10D6E00002207047022070470220704702207047D6
:10D6F00002207047022070470220704702207047C6
:10D7000002207047022070470023136070470020FA
:10D7100070470220704702207047022070470220A5
:10D72000704702207047002070470020704700209B
:10D730007047022070470220704741607047816047
:10D740007047C160704701617047416170470220B6
:10D750007047022070470220704702207047022065
:10D760007047022070470220704700207047022057
:10D77000704700207047704790DF704766DF704742
:10D7800048DF70475F300078431E9841C0B2704751
:10D79000007970470C3070470C30704708B5FFF7C0
:10D7A000EFFF08BD08B50368002B01D0081C98479F
:10D7B00008BD08B50368002B01D0081C984708BDB8
:10D7C00008B50368002B01D0081C984708BD08B5B0
:10D7D0000368002B01D0081C984708BD08B50368F2
:10D7E000002B01D0081C984708BD000010B5034B62
:10D7F000041C0360FEF7FAFC201C10BD388C0200EC
:10D8000010B5041CFFF7F2FF201C05F0F9FE201CE8
:10D8100010BD08B5081C111C1A1C029B01F0F8F978
:10D8200008BD08B5081C111C01F06CFA08BD08B54C
:10D83000081C111C01F08CFA08BD08B501F04EFA65
:10D8400008BDF0B595B008230C1C69460B7104AAFD
:10D850000B7368460CAB0293009201F09FFA002311
:10D86000061C051E2CD169460B79AB4211D9637990
:10D87000AB4201D8257124E00722101C68432368BD
:10D88000009F1818AB00D959013507F011F9EDB216
:10D89000E9E7257100256B461A7B2379EB18AA422C
:10D8A0000ED9627993420BDA0721029F4B43AA00FB
:10D8B000D05922680135D11801F08CFAEDB2EAE7AF
:10D8C0002371301C15B0F0BD7FB50379002B0FD04C
:10D8D000164E174C3378201C002B25D102AD281C86
:10D8E000FFF74CFF002819D16B88592B16D101E0A6
:10D8F000104819E02B78AA88D91F012904D8009272
:10D90000201C20210C4A03E000920C4A201C2021FC
:10D9100007F0F2F901233370201C05E0201C0849B0
:10D92000202207F022FAF7E704B070BDE02C0020B7
:10D93000242E0020608B02007A8B0200978B02005D
:10D94000BC8B020038B50379041C0920002B28D0B9
:10D9500002F024FF031C0520002B22D1251CFC35DE
:10D96000A86B002803D1286C002806D10AE00368C0
:10D970001B6A98470028F6D013E003689B6A984713
:10D9800000280ED1E86B002804D00368DB6A9847B2
:10D99000002806D1201C0C3004F074FA002800D1B5
:10D9A000207138BDF7B50093036801915B68041CD2
:10D9B000171C9847051C0620002D3BD11C203A1C43
:10D9C00000194ACA4AC0FF68009A231CA762E56290
:10D9D000443383CA83C3009B0899DB681422236500
:10D9E0006565A01D07F064F8201C099914223030E9
:10D9F00007F05EF8019E231C5D33A680013B5D703D
:10DA00000121301C1D70D9702A1CFFF7B5FE061CC1
:10DA1000281C002E0ED02368201C9B689847112ECE
:10DA200007D0054B9E4202D00620072E02D10420CB
:10DA300000E00520FEBDC0460230000038B5041CE1
:10DA4000E3692362206A002807D0C368211C984735
:10DA5000236A002BF4D01B69F3E7E069002804D0A7
:10DA6000056905F0CDFD281CF8E7E0616060A06065
:10DA7000E0602061606138BD08B5FFF7DFFF002876
:10DA800000D0062008BD38B5041C0068002804D06A
:10DA9000056905F0B5FD281CF8E7206038BD0000D9
:10DAA00010B5034A041C04C0FFF7EDFF201C10BD95
:10DAB000708A020010B5041CFFF7F2FF201C05F06D
:10DAC0009FFD201C10BD38B5041C0068002804D040
:10DAD000056905F095FD281CF8E7206038BD0000B9
:10DAE00010B5034A041C04C0FFF7EDFF201C10BD55
:10DAF000808A020010B5041CFFF7F2FF201C05F01D
:10DB00007FFD201C10BD000038B5074B041C0360CE
:10DB10004068002804D0056905F072FD281CF8E76C
:10DB20006060201C38BDC046908A020010B5041CFD
:10DB3000FFF7EAFF201C05F063FD201C10BD00006C
:10DB400038B5074B041C03604068002804D0056901
:10DB500005F056FD281CF8E76060201C38BDC04663
:10DB6000608A020010B5041CFFF7EAFF201C05F0D4
:10DB700047FD201C10BD000038B5074B041C036096
:10DB80004068002804D0056905F03AFD281CF8E734
:10DB90006060201C38BDC046008B020010B5041C1C
:10DBA000FFF7EAFF201C05F02BFD201C10BD000034
:10DBB00038B5074B041C03604068002804D0056991
:10DBC00005F01EFD281CF8E76060201C38BDC0462B
:10DBD000F08A020010B5041CFFF7EAFF201C05F0D4
:10DBE0000FFD201C10BD000038B5074B041C03605E
:10DBF0004068002804D0056905F002FD281CF8E7FC
:10DC00006060201C38BDC046B089020010B5041CFD
:10DC1000FFF7EAFF201C05F0F3FC201C10BD0000FC
:10DC200038B5074B041C03604068002804D0056920
:10DC300005F0E6FC281CF8E76060201C38BDC046F3
:10DC40008089020010B5041CFFF7EAFF201C05F0D4
:10DC5000D7FC201C10BD000038B5074B041C036026
:10DC60004068002804D0056905F0CAFC281CF8E7C4
:10DC70006060201C38BDC0469089020010B5041CAD
:10DC8000FFF7EAFF201C05F0BBFC201C10BD0000C4
:10DC900038B5074B041C03604068002804D00569B0
:10DCA00005F0AEFC281CF8E76060201C38BDC046BB
:10DCB000A089020010B5041CFFF7EAFF201C05F044
:10DCC0009FFC201C10BD000038B5074B041C0360EE
:10DCD0004068002804D0056905F092FC281CF8E78C
:10DCE0006060201C38BDC046508A020010B5041C7C
:10DCF000FFF7EAFF201C05F083FC201C10BD00008C
:10DD00000F4B10B5083303600E4B041CC360013089
:10DD1000FF30FFF76BFD0C4B201CE360B830FFF7C2
:10DD200063FF201CAC30FFF7B3FF201CA030FFF7CF
:10DD300093FF201C6C30FFF773FF201C10BDC04602
:10DD4000C88B020040920200C089020010B5041C7A
:10DD5000FFF7D6FF201C05F053FC201C10BD00006F
:10DD600038B5051CFC352C6C002C0DD1242005F099
:10DD700033FC064B44608361054B8460C4600461DE
:10DD80004461C46103602864286C38BD508A020075
:10DD9000308B020038B5051CFC352C6C002C0DD1E5
:10DDA000242005F019FC064B44608361054B846018
:10DDB000C46004614461C46103602864286C38BD98
:10DDC000508A0200308B0200F7B50379071C0E1C45
:10DDD000151C002B06D00023019300930A246B46E8
:10DDE0001C7109E000F0B0FC041C0C20002C0CD1CC
:10DDF00001233B7100940194301CFFF703FCEB6896
:10DE000000906946281C9847201CFEBD10B50021D3
:10DE10001F22041C06F06EFE0023E37710BD0000F5
:10DE2000F0B5051CAC35041C686887B0A860A8680C
:10DE300000280BD0C368211C9847AB68002B02D187
:10DE40006968A960F3E71B69AB60F0E7251CB03592
:10DE50002868002804D0066905F0D2FB301CF8E7DA
:10DE6000231C58331978FC220A402860023B9A7020
:10DE700098711870201C0A30FFF7C8FF201C34303E
:10DE8000FFF7C4FF606E002804D0056905F0B8FBF9
:10DE9000281CF8E7251C606698352868002804D0FF
:10DEA000066905F0ADFB301CF8E7261C2860A43697
:10DEB0003568002D05D02F69281C05F0A1FB3D1CFD
:10DEC000F7E7356001AE291C301C0C2206F012FE6B
:10DED000231C321C6C3383CA83C3094BE567A367D9
:10DEE0000C22301C291C06F005FE231C803385CE35
:10DEF00085C3044A9034281C1A60256007B0F0BD21
:10DF0000B3D70100A5D7010010B50023021C037090
:10DF10001132431C00241C7001339342FAD1418218
:10DF200010BD0000F0B589B0002603AC051C86804A
:10DF3000311C201CFFF7E8FF211CA81D142206F04D
:10DF4000B7FD2F1C311C0C22201C06F0D3FD1C3702
:10DF5000201C0EC80EC70F4B311C0190AB62EE6245
:10DF6000201CFFF7D1FF2B1C221C303383CA83C334
:10DF7000019A311C81CA81C30C22201C06F0BAFD13
:10DF80002B1C443386CC86C3034B301C2B656E653B
:10DF900009B0F0BDCFD70100DDD70100F0B597B0D3
:10DFA0000593036807AC1B6804910393111C231CA1
:10DFB000061CA1C9A1C3D26800250A92291C0C2203
:10DFC0000CA811AF0B9506F095FD094B291C381CC8
:10DFD00010950F93FFF798FF059D01970095301C52
:10DFE0000499221C0CAB039FB84717B0F0BDC04684
:10DFF000DDD7010038B50025041C291C20C0FFF71F
:10E0000083FF25766583A583E5832584201C38BDA1
:10E0100010B58AB0041C0021242201A806F06AFD74
:10E0200001A8FFF7E7FFCA235B002222E01801A93D
:10E0300006F03EFD2368201C5B689847231C5F3375
:10E0400000221A7090420DD0C0235B00E358934227
:10E0500008D0054B934205D0C0235B00E018A1888F
:10E06000C36898470AB010BDB9D6010008B5FFF7DC
:10E07000CFFF08BD00487047E42C002000487047DF
:10E08000E42C0020F0B5434B434A0833061C0360E0
:10E09000C2600023A0221636011C428285B0041CF7
:10E0A0000371836003748382321C35310023137043
:10E0B00001328A42FAD180258021C901AD00201C9D
:10E0C000F3770A1C35843830009303F0AFFA221C32
:10E0D0004032211C0392131C5F312A1C00251D7045
:10E0E00001338B42FAD1039B201CDD77231C603364
:10E0F00019791A80FC220A409D701A711D72274BF3
:10E10000291CE36625670C22783006F0F3FC231CFB
:10E1100088331D60271C224B0837FB678437291C76
:10E12000381C0C2206F0E6FC1E4B1F4AFB60231C29
:10E13000A0333D611A601D4A5D60DA601C4A1D61B2
:10E140009A61DD61301CFFF761FE0398FFF75EFE08
:10E15000184B601CE360231CC4331D705D709D7000
:10E16000FF3000F087FE8C235B00E5508C235B00C2
:10E17000E3185D61104A80235B00E250231C0122FA
:10E18000FE3352425A86201C023B9D63DD631D64B0
:10E1900005B0F0BDC88B0200C08902008089020072
:10E1A000B3D70100A5D7010090890200A089020021
:10E1B000B089020040920200388C020038B50C226F
:10E1C0000D1C0021041C06F095FC00232361024B6A
:10E1D0002560201CE36038BDC1D70100314B70B50C
:10E1E0000025041C0E1C036085710583291C0C226C
:10E1F0001C3006F07FFC2C4BE562A362231C3033FD
:10E200001D70201C231DDD87291C44300C2206F0C4
:10E2100071FC264B65652365254BA6652360231C91
:10E220005C331D705D709D70DD70261C251C603593
:10E23000C036281C0021FFF767FE0023AB82EB826B
:10E240001835B542F5D1A8225200A618281C002185
:10E25000242206F04FFC281C2435FFF7CBFEB542E4
:10E26000F4D1A82300215B00E150B422231CFC332D
:10E2700052009965D965196659666C61A150196794
:10E2800059679967D967A3185C61C0235B00E018E0
:10E29000FFF794FFCA225200A018FFF7ABFE201C24
:10E2A00070BDC046D08A0200CFD70100DDD7010083
:10E2B000108B020070B5061CFC36F56B002D1CD1CE
:10E2C000B420800005F088F90D4B041C43600D4B11
:10E2D000856003610C4B4561C3610C4B0562836231
:10E2E0000B4BC5620360211C3430FFF777FFF62328
:10E2F0005B00E01803F076FAF463F06B70BDC04683
:10E30000808A0200708A0200F08A0200008B0200FC
:10E31000D0920200264B70B50360264B0025836027
:10E32000254B041C4361254B05710362244B457149
:10E33000C362C560856145620563291C3830FFF7FB
:10E340003DFF201C291C4C30FFF738FF201C291CE6
:10E350006030FFF733FF1B4B251C2360231C7435F3
:10E36000C433002204C59D42FBD1B2214900661886
:10E37000281C00210822083506F0BCFBB542F7D165
:10E38000C2235B00E218002308C59542FBD1C222DC
:10E39000C32152004900A3546318CB2149006218DD
:10E3A0000021198002339342FAD1201C70BDC0466F
:10E3B000A08A0200608A0200708A0200808A02003D
:10E3C000908A02001093020038B5041CFC34A36B41
:10E3D000002B07D1CC20400005F0FEF8051CFFF70C
:10E3E00099FFA563A06B38BD38B5041CFC34A36B42
:10E3F000002B07D1CC20400005F0EEF8051CFFF7FC
:10E4000089FFA563A06B38BD70B5031C0A1C70CAD8
:10E4100070C3C9680023C160036170BD08B5813055
:10E42000FF30FFF7F1FF08BD30B587B0051CFFF7DF
:10E4300079FD041E24D12B1C5C3318705870987021
:10E44000D870A8235B00E850EA1801235B425360B0
:10E450009360D3601361B4225200A850B4225200DA
:10E46000AA18211C53609360D360136101A8FFF7C1
:10E47000A5FEC0214900681801A9FFF7C5FF00E00B
:10E480000624201C07B030BD70B5041C86B0236B79
:10E490006363606B002807D0C368211C9847636BD7
:10E4A000002BF4D01B69F3E7206B002804D005692A
:10E4B00005F0A6F8281CF8E7E56820632071607174
:10E4C000002D05D02E69281C05F09AF8351CF7E7B9
:10E4D000201CE5601830FFF7D6FA201C2430FFF727
:10E4E000F2FA291C01A8FFF769FE201C01A93830A7
:10E4F000FFF78AFF291C01A8FFF760FE201C01A975
:10E500004C30FFF781FF291C01A8FFF757FE201CA4
:10E5100001A96030FFF778FF281C06B070BD00002D
:10E5200010B5054C201CFFF7ADFD201C0349044A23
:10E5300005F07EF810BDC046E42C002001DD01008E
:10E540000028002070DF704771DF704760DF704780
:10E5500008B501F08DFE08BD08B502F0A5F8002051
:10E5600008BD0000F0B5041C8BB001F09BF8201C26
:10E5700000F002FA0020FFF781FD0368061C1B690A
:10E5800098473368051C9B69301C98473368019095
:10E590005B6A301C9847031C208810380B2800D970
:10E5A000C8E006F001FF0643C7C7C782C7C7C789CF
:10E5B000C7A7A688281C311C277D03F076FC607B4A
:10E5C0002B1C5833009018780122904302221043EC
:10E5D000A179023B987018780622013018700098D3
:10E5E0006B46D97498761E829F74231C1633E11DE6
:10E5F00005A8099306F05CFA6846211C0E31943593
:10E600001B30062206F054FA6968A960A868002841
:10E6100000D18FE0C36804A99847AB68002B02D1F2
:10E620006A68AA60F2E71B69AB60EFE74449281CFF
:10E63000A78803F03AFCA379301C009333681B6A67
:10E640009847F6214900061C06224018391C03F0A1
:10E65000C5F9338FBB4204D1736B301C34309B68D7
:10E6600098472A1C56321378013BDBB21370002BFB
:10E6700005D12B1C58331A7802218A431A70A03511
:10E68000009B68686A4617829374A860A86800288F
:10E6900050D0C36804A99847AB68002B02D16968C1
:10E6A000A960F3E71B69AB60F0E75B69A088A11D77
:10E6B000002B3FD098473DE0A679002E05D12B1CBA
:10E6C00058331A7801218A431A706B6E002B31D0AF
:10E6D0001C4A002A2ED0AB66A86E00282AD0C36838
:10E6E000311C9847AB6E002B02D16A6EAA66F3E725
:10E6F0001B69F0E7A37B68465A07910FDA08677B2E
:10E7000001700272E11D04A80622DE0706F0D0F9AE
:10E710006B461878197AF60F187659769F75DE755C
:10E72000231C0F3307932B1C8C33281C80301B6851
:10E7300004A998470198211C04F0C6F80BB0F0BD5D
:10E74000FFFF0000B9D601001FB5A3238022DB0024
:10E75000D205D3580D20DA0700D508201C494822DD
:10E760001C4B01F0F7FF00280BD080B2002808D125
:10E77000BFF34F8F184A194BDA60BFF34F8FC04673
:10E78000FDE7002302A80293436001230370FFF713
:10E79000DDFE002801D0072017E06846FFF7D4FE11
:10E7A0000028F8D16946FFF7CDFE0028F3D10C48C8
:10E7B00002F000F880B2002807D10A4802F004F8FD
:10E7C00080B2002801D100F099F905B000BDC04623
:10E7D000442E002059E501000400FA0500ED00E098
:10E7E00065E5010051E501007047000080B2002896
:10E7F00008D1BFF34F8F044A044BDA60BFF34F8F49
:10E80000C046FDE77047C0460400FA0500ED00E091
:10E8100010B50278002A09D10C78131C002C13D1F2
:10E82000428A4B8AD31A5A4253410CE00023012AF0
:10E830000AD10A78012A07D101300131102206F0ED
:10E8400028F943424341DBB2181C10BDF0B50E1C41
:10E85000011C5F3191B001910B78071C051C5C37DE
:10E86000022B7BD107AC24220021201C06F042F9A8
:10E8700008A80021FFF748FB002323766383A383C6
:10E88000E3832384CA235B00EB58079A934217D192
:10E89000CC235B00E81808A9FFF7BAFF00280FD0C7
:10E8A000CA2149006B181A7E510609D15A8B002AD9
:10E8B00006D1DA69E1698A4202D11B8C002B4AD069
:10E8C000002E32D13B78182253436033EB18DA8A9A
:10E8D000D9235B00EA522A1C3032311C02A8009274
:10E8E000FFF712FB009802A9FFF792FF002814D14E
:10E8F000CC235B000098E918FFF78AFF002814D0AA
:10E90000311C201CFFF700FBA81D211CFFF780FF16
:10E9100001235840C0B2002807D0696C281C44303D
:10E92000002902D0134B002B1DD124220021201CD2
:10E9300006F0E0F8002108A8FFF7E6FACA22520024
:10E940000023A818211C222223766383A383E38358
:10E95000238406F0ADF8019901230B703B78013355
:10E960003B7011B0F0BDCA225200A9182B6D984718
:10E97000DBE7C046B9D601007FB5051C0020FFF7D4
:10E980007DFB0368041C1B6998472368201C1B6AD5
:10E990009847061C041C288834363038082800D9CB
:10E9A0009AE006F001FD05991384212D9948650030
:10E9B000EB88002B05D1291C0C31301C04F018F910
:10E9C0008AE0636B301C9B68984785E0EB88002BDE
:10E9D00005D1291C0C31301C04F08CF97CE0301C72
:10E9E0000021FFF733FF77E0636B301C5B689847CB
:10E9F000002871D0291C0C31301C04F0D9F96BE0CF
:10EA0000AB886A461380AB895380EB8993802B8A4D
:10EA100012350295D380A368E360E06800285BD0DC
:10EA2000C36869469847E368002B02D1A268E26098
:10EA3000F3E71B69F0E7AB886A461380AB89538024
:10EA4000AB7B13712B8AD3806B8A143503951381AA
:10EA50006369A361A06900283ED0C36869469847EE
:10EA6000A369002B02D16269A261F3E71B69F0E799
:10EA7000AB886A461380AB895380AB7B13712B8ABA
:10EA800012350295D380236A002B25D0164A002A1E
:10EA900022D06362606A00281ED0C3686946984726
:10EAA000636A002B01D1236AF3E71B69F1E7F622C1
:10EAB000EB885200A018A988002B05D085225200AF
:10EAC000934206D1002205E02A1C0C3202F099FF85
:10EAD00002E00B2202F082FF301C04F081FA301CAD
:10EAE00004F0FCF97FBDC046B9D6010077DF70475E
:10EAF00078DF70477ADF70477CDF70471FB50023EF
:10EB000002AC039328232380C8235B006380E38047
:10EB100001A811230C4905220370FFF7EDFF80B215
:10EB200000280FD180208000FFF7E2FF80B200288C
:10EB300008D1201CFFF7DEFF80B2002802D1FFF7CA
:10EB4000D5FF80B204B010BD088C02007EDF704794
:10EB500068DF704738B500200C1CFFF78FFA036898
:10EB60005B6A98472378051C142B17D002D8132B07
:10EB700005D042E0152B16D0222B38D03DE063683B
:10EB80006C6818889B78D9079A07C90FDB06C9B249
:10EB9000D20F5B0F002C30D0A0472EE0636818889E
:10EBA0009978AB681FE0626891780B090907090F33
:10EBB000012902D0022908D010E0013BDBB200217C
:10EBC000022B0ED80E49C95C0BE0012B08D0023B8A
:10EBD0005842434105215B42194002E0002100E018
:10EBE00004211088EB68002B07D0984705E0636884
:10EBF00018882B69002B00D09847002038BDC046EC
:10EC00000E8C0200014B18787047C0468D2E0020F4
:10EC1000F0B51C1C2D4B87B001921A78071C002000
:10EC20000D1C824250D101F055FB002846D1002C2A
:10EC30000FD0222003A90394FFF78AFF002808D0F1
:10EC4000082804D011384342584104303CE00620E3
:10EC50003AE000236846037202A800F099FB011E07
:10EC60002CD11B4E012433782540A3436A00274052
:10EC70001D1C3D43019B02270720BD430340154354
:10EC80001C22BB4095431D43357003AD0C22281C4C
:10EC900005F030FF0F4B6846311C052211300393FD
:10ECA0002F7105F005FF0C48291C00F0E3FB031E43
:10ECB00006D0042807D00620082B05D00B2003E03F
:10ECC000024A147000E0072007B0F0BD8D2E00202E
:10ECD0003528002055EB01008C2E002008B508488F
:10ECE00000F090FC0023984207D0042804D00623AB
:10ECF000082802D00B2300E00723181C08BDC046DB
:10ED00008C2E002073B500230193104B01AD1B78AE
:10ED10000E1C291C2B7000F089FE041E04D00B234E
:10ED2000052810D104230EE0281C311C00F0DCFB68
:10ED3000231C002807D0042804D00623082802D06A
:10ED40000B2300E00723181C76BDC0468C2E002044
:10ED500073B5114C0D1C061C211C6846052205F0DC
:10ED6000A7FE012D06D0022D13D1237801221343D3
:10ED7000AB4303E023780222AB439343301C694644
:10ED80002370FFF7E3FE421E90410B2340420340F5
:10ED900000E00223181C76BD3528002008B5094B79
:10EDA000011C1A780923002A09D0074800F0D4FB77
:10EDB0000023984203D006230E2800D10323181CF9
:10EDC00008BDC0468D2E00208C2E002008B500F016
:10EDD0007CFE08BD08B502230B708E230B714F23F8
:10EDE0004B710A1C7C238B710132043100F044FE0C
:10EDF00008BD4368426910B5D118041C00F050F8F2
:10EE0000E36A002B04D1A369002B07D0984705E0E3
:10EE1000A069002802D0211C1C31984710BD10B5F4
:10EE2000041C00F045F80023A361E36210BD38B56F
:10EE30000D1C041C00F03CF86561206901F0D9FD4F
:10EE40004119201C00F02CF838BD08B5C36A011C1C
:10EE5000002B04D18369002B06D0984704E0806919
:10EE6000002801D01C31984708BD08B503689B688D
:10EE7000984708BD084B10B5083303600023436072
:10EE80008360C360041C01F0B9FD0449206101F0F6
:10EE90004BFD201C10BDC046488C02006BEE0100EB
:10EEA00008B50A1C031C011D006901F069FD08BDBD
:10EEB00008B5011C0431006901F07EFD08BD0000A9
:10EEC00010B5044B041C08330360FFF7F1FF201C4E
:10EED00010BDC046488C020010B5041CFFF7F0FFBF
:10EEE000201C04F08DFB201C10BD08B5012005F08E
:10EEF00075FD7047704708B5FFF7FCFFFFF7F9FF96
:10EF000002F076FB08BD0000084B1B681818EFF3F1
:10EF10000882904205D3064B0C2201201A60404221
:10EF200002E0024A1060181C7047C0463C280020CE
:10EF30002C30002008B5002800D1FEE701F084FC49
:10EF4000FBE77FDF704782DF7047A7DF7047A9DFED
:10EF50007047AADF704700207047002070470020EC
:10EF60007047002070470020704700207047002045
:10EF700070470000F0B58BB06C460E23E38203901F
:10EF800001914B780C225343244A1634D318188924
:10EF900006A9221C0323FFF7DCFF00283BD1019BBD
:10EFA00018275B781E4D5F4300933B1C268808336F
:10EFB000EB18181C06A9321C029305F06AFD2C1CE4
:10EFC00000280DD1009A0C235343144AD318997A80
:10EFD000022319401FD1E819182205F08BFD1AE011
:10EFE000ED196B68002B01D00E4F00E00E4F009B17
:10EFF00018256B430322E250E3185E6006A9321C19
:10F00000029805F055FD019B039859782A1C694325
:10F0100038236118B84700200BB0F0BD922E0020B5
:10F02000F42E0020E90402006904020008B5FFF78D
:10F03000A1FF08BDF7B5041C0F1C6A468178224861
:10F0400001F0EAF900283DD162780C214A431F4BB8
:10F050009A18927A530605D4022F03D0012F03D1B8
:10F060001B4D02E01B4D00E01B4DA1781C26714397
:10F070001A4B68465918321C0023A847002813D1A0
:10F08000022F1FD063780C225343104A4021D3181B
:10F090009A7A68468A439A726178114B7143321C9E
:10F0A0005918331CA84701E0022F0BD023780C22FB
:10F0B00053430C4A6846D3189A7A0B4B9200D358A4
:10F0C000211C9847F7BDC0461C2F0020922E00201F
:10F0D00069040200E904020057EF0100A02E00209D
:10F0E000D82E00200C2F0020708C0200F7B5019064
:10F0F000437818215943264A264F50184468002C5B
:10F100000FD00C2058433818807A45B2002D07DA0A
:10F11000450605D40E1C0836A5B296198C5802E097
:10F120000024251C261C0C225343FB181889311C73
:10F130002A1C231CFFF70BFF0B280BD1019A311C53
:10F1400053780C225343FB1818892A1C0123FFF71C
:10F15000FEFE0124002800D00F48012C17D1019D8C
:10F160000C216B780D4A4B43FB181889FFF7EDFE15
:10F1700000280CD00A4B984208D0082806D0094B2A
:10F18000984203D0112801D0002000E00248FEBDC3
:10F19000F42E0020922E002041800000FFFF00008E
:10F1A000023000000430000008B5FFF79FFF08BDE3
:10F1B00070B5031C487818246043094D0E1C2818AC
:10F1C000191C221C382301F0CFF9002806D17378CE
:10F1D0005C432D196B68013300D1686070BDC04677
:10F1E000F42E002008B5FFF7E3FF08BDF0B51D1CA5
:10F1F000434B161C1A6893B001900F1C002A7CD058
:10F200001898542879D803ABFF22002469465A7015
:10F210009A70DA701C700C760B950A90A1B239487E
:10F2200004AA01F0F9F8002809D1019804A90822DC
:10F2300005F02FFC002802D103AB9C7002E00134E2
:10F24000022CEBD103ACA278FF2A56D0032F0AD1AF
:10F25000189A06AB542A01D1202200E040221A70ED
:10F260001A7803213BE0284BEB1A372B11D8274B98
:10F27000002E04D101211868914008423DD001219F
:10F2800091400A1C196891431960202206AB1A703C
:10F2900020E01F4BEB1A1B2B09D806AB20221A705B
:10F2A000002363700CAB0B9318230A9312E01948E8
:10F2B0002D1A172D21D830236A4613760023637048
:10F2C0000123E370144B997A0223194002D11822CA
:10F2D00005F010FC06AB022F0CD11A7801210A436D
:10F2E00007481A7009AB079306A90368321C201C53
:10F2F000984702E01A780221F1E713B0F0BDC0464A
:10F300000C2F00201C2F0020A02E0020182F0020E2
:10F31000D82E0020F42E0020922E002070B51C2440
:10F3200044430E4E051C30190021341906221130B9
:10F3300005F0E0FB201C0021102205F0DBFBFF2381
:10F340002374A37601235B4223830122044BAA404A
:10F35000151C1A68AA431A6070BDC046A02E002072
:10F36000182F002037B581B2051C6A46074801F006
:10F3700053F8041E08D16846542101F03FF9041ED9
:10F3800002D1281CFFF7CAFF201C3EBD1C2F002005
:10F39000F0B5061C85B0002857D02D4B2D4801250F
:10F3A00000246F421C605C729C72211C0781C77232
:10F3B0000722857205F09EFB211C1822264805F0C5
:10F3C00099FB201CFFF7AAFF244CFF23281C237065
:10F3D000FFF7A4FF6A46542367709380204C0223F2
:10F3E000D380204B6846211C009300F0B5FF271CFA
:10F3F00000282BD11C4A33781570151C002B1BD10B
:10F400001C1CA1B2381C02AA01F006F8061E0CD181
:10F410001C22131C6343154802A9C018331C01F0B9
:10F42000A3F8002804D02E7010E000232B700DE00C
:10F430000134022C0AD0E4E76B46D9889B88201C53
:10F44000594389B201F0DAF800E0094805B0F0BD8F
:10F450000C2F0020922E0020F42E00208E2E002053
:10F460001C2F0020EDF10100902E0020A02E002086
:10F470000E800000F8B5174B071C1B780D1C002BE5
:10F4800022D0002822D0002920D00B68002B1DD0CC
:10F49000114C2668002E1BD1201C08C00531052206
:10F4A00005F006FB207A2B79012188430222A37202
:10F4B0001043042398432072E07901430A439A439E
:10F4C000E271301C3E7004E0044802E0044800E0B1
:10F4D0000448F8BD902E00200C2F0020088000006A
:10F4E0000E80000004800000154B1B78002B22D0FA
:10F4F00000281ED000291CD00378002B1BD1114BF3
:10F500001B68002B17D04278002A16D10E4B9B7A2D
:10F51000012B12D02420184003D001230B70101CA3
:10F520000CE05BB2002B02DA02230B7006E00870DD
:10F5300004E0064802E0064800E006487047C0467E
:10F54000902E00200C2F0020922E00200E80000014
:10F550000880000010800000234BF0B51B78002BC2
:10F5600025D0002821D000291FD00B68002B1CD0EB
:10F570008D68002D19D00378002B18D11B4A126812
:10F58000002A14D01A481A1C10301C1C194DEE7A8F
:10F59000B3420ED1AD7AAE070BD501331C30022B2E
:10F5A000F4D10C710A7300201CE013481AE01348D0
:10F5B00018E00D7BAA420AD2857AEE0707D4061C12
:10F5C0008F689500103EEE510D4DAB5401320D7910
:10F5D000AC42E2D2857AAE07DFD40F68A500E851CD
:10F5E0000134DAE7F0BDC046902E00200C2F002039
:10F5F000A02E0020922E00200E8000000880000027
:10F600008E2E0020104B10B51B78002B19D000282F
:10F6100015D00078002814D10C4B1B68002B10D09B
:10F620000B4B9A7E1C1CFF2A01D0FFF79BFE363441
:10F630002378FF2B06D00120FFF794FE02E0054857
:10F6400000E0054810BDC046902E00200C2F002081
:10F65000A02E00200E8000000880000013B5041CBE
:10F6600081786A460B4800F0D7FE002810D16078F8
:10F670001C235843084A694610181A1C00F074FFEE
:10F68000064B68469A7A064B9200D358211C98473D
:10F6900013BDC0461C2F0020D82E00200C2F0020A8
:10F6A000808C0200F0B5C64A8FB01278FF23061C8A
:10F6B0000393002A00D1B4E1C24A1168002900D1A5
:10F6C000AFE104AD05AF6B70AB70EB70031D7B60F9
:10F6D0002A233B81038800222A70BB4C102B22D0A6
:10F6E000A17A82880191890707D5B8498A4200D159
:10F6F00049E12189914200D145E1172B00D1ACE0CD
:10F7000007D8132B53D0142B2DD0112B00D088E108
:10F710000FE01C2B00D11CE1522B00D111E1182B62
:10F7200000D07EE1E5E0A37A01210B4200D02FE179
:10F7300077E101990223019A9943A172120707D533
:10F740004BB2002B0BDA281C0021FFF773FC06E0FC
:10F75000A878FF2803D0FFF7E1FDFF23AB7010234B
:10F76000A3721223F6E0E37A994FFF2B14D1F389A9
:10F770003A8B9A4204D0BA8E9A420DD1012300E00E
:10F7800000230199082203930A43DBB2E372A272B9
:10F79000281CAB70FFF762FFE37A0021FF2B00D03B
:10F7A0008C49B0883A1C0023FFF7CDFB39E1019A60
:10F7B0003B7004231343A372E37AFF2B25D18449C2
:10F7C0008B7EFF2B06D00B1C36331B780127FF2BBB
:10F7D00029D100E0002723781C207843022B09D090
:10F7E0007B4AFD2310188376211C0722103005F078
:10F7F0005FF903E0764B1818FE23837603AB1F7086
:10F800000399CBB2AB70E3720BE0734816230E2260
:10F81000083000213B7005F06DF9019A4423134331
:10F82000A372002400E06D4C0021674B0B91DB7A42
:10F830001C225343664A0D91D3180C93654B614AC1
:10F84000089309910A91B088043208ABFFF779FB5D
:10F85000002800D0E5E0221C7EE05A4901224B7AC4
:10F860009343019A4B7204239A431423A2723B7070
:10F87000B379002B04D0E07AFFF774FDB2796BE026
:10F88000F379590767D5AB78FF2B64D008210A4379
:10F89000F17AA2728907C90F012906D11C225A43A5
:10F8A0004B488218907E88439076E27AFF2A52D0A5
:10F8B0002178474A1C2602290CD05E439619301C39
:10F8C00007221030211C05F0F3F8B37E0222934387
:10F8D000B37609E073433F49D318498A1A1C198348
:10F8E0009B7E01218B439376281C0121FFF7A2FB0D
:10F8F00031E0B379112B15D1019A120712D5364890
:10F9000000210E22083005F0F5F8162301993B700E
:10F9100060230B432B4AA372537A2A4902221343D2
:10F920004B7218E0019A80235B421343A3721523A4
:10F930003B70244B281C9A7A294B9200D358984745
:10F9400009E02049264B8A7A281C9200D358984710
:10F9500067E013233B7000221A4905AC0B68281C92
:10F96000211C98472378122B5BD11748837A012BEF
:10F9700057D0012383725B420381C37200210722A7
:10F9800005F0B8F84DE0E27AAA7000226A70B4E699
:10F9900011233B706A708388871D23810223A37221
:10F9A000201C391C072205F083F8737DDA071BD56C
:10F9B0000C4A5B08D35CFF2B29D0039327E0C04699
:10F9C000902E00200C2F0020922E0020FFFF000020
:10F9D000A02E0020D82E0020F42E0020438000000E
:10F9E000608C02008E2E00200F4E391C301C10300F
:10F9F000072205F04EF8002808D0301C2C30391CA6
:10FA0000072205F046F80028A5D101200390039AAB
:10FA1000281CD3B20A22E372A272AB70FFF71EFE5B
:10FA200099E70FB0F0BDC046A02E002030B50029E8
:10FA300012D00A78002A11D10A4B1B68002B0DD076
:10FA4000FF23094C8B7025890523854207D14A7015
:10FA5000E37A8B70131C02E0044B00E0044B181C8B
:10FA600030BDC0460C2F0020922E00200E800000DA
:10FA7000088000004DDF704730B500238DB00D1CAD
:10FA8000141CC21AD27B69465A540133102BF8D188
:10FA9000002104A80D2205F02DF82B786A46D377B3
:10FAA0006B7868469377AB785377FFF7E3FF6B4645
:10FAB0002F331B7823706B462E331B7863706B4695
:10FAC0002D331B78A3700DB030BD30B50378041C06
:10FAD00085B00D1C0020022B16D1611C032201A849
:10FAE00004F0E6FF211D032203A804F0E1FF281C17
:10FAF00003A902AAFFF7C0FF01A802A9032204F08C
:10FB0000C8FF43425841C0B205B030BD08B5064BEE
:10FB1000586980235B05421C04D0196989B205F03D
:10FB20004DFC00E0586908BD0010001029DF704747
:10FB300028DF704708B5034B1A78034B9200D3585F
:10FB4000984708BD6C2F0020908C020037B50B1C25
:10FB5000074C89680C254D4324681978021C181C31
:10FB60001B690094034C08302C59A04737BDC04690
:10FB7000742F0020582F002008B5104A1421137844
:10FB80004B43D318802218695205116904335A88EF
:10FB900001389B888018C01889B205F00FFC084A0C
:10FBA000031C126801209A4207D300209A4204D114
:10FBB000044B186843425841C0B208BD242F0020AE
:10FBC000502F0020542F002008B5044B082219683C
:10FBD00091431960FFF7AEFF08BDC046682F0020B3
:10FBE000094A08B5136819070AD4990702D50121F3
:10FBF0000B431360054B02221A70FFF79BFF01E0D5
:10FC0000FFF7E2FF08BDC046682F00206C2F0020E0
:10FC100008B5064B1B681A0705D4054B01221A705C
:10FC2000FFF788FF01E0FFF7CFFF08BD682F002036
:10FC30006C2F002008B5002814D0112805D10A4BDC
:10FC4000082219680A431A600CE0084B14211A783C
:10FC500051435B18191DFFF779FF054B04221A70F9
:10FC600000F096F808BDC046682F0020242F002021
:10FC7000782F002008B5FFF759FFFFF7DBFF08BD1D
:10FC8000F8B5134B14241A78802554436D051C19BC
:10FC900004342F696288BFB2A088E36821690D4EE1
:10FCA000BA420DD92C69C018A4B2121B2C69801855
:10FCB0008918A2B29208FFF7DDFF2B699BB204E01E
:10FCC000C0189208FFF7D6FF63883360F8BDC046BE
:10FCD000242F0020842F002038B50A4A8024640590
:10FCE000236915689BB2013D5D43FFF70FFF216952
:10FCF000054B013889B241431A68281CFFF7BAFF47
:10FD000038BDC046502F0020802F002070B5104A0B
:10FD10001421137880254B43D3181A89DC880433C7
:10FD2000DB686D05A4182969E418201C89B205F068
:10FD300089FB0E1CFFF7EAFE2969013889B24143AD
:10FD4000044B89191A68201CFFF794FF70BDC04648
:10FD5000242F0020542F002010B5FFF7D7FE80235A
:10FD60005B051C6919691A69431EA0B25843044B0C
:10FD700089B21B6892B259439208FFF77BFF10BD0E
:10FD8000502F002008B5FFF7D3FEFFF753FF08BD43
:10FD9000F0B52B4B85B0187803284FD805F004FB3D
:10FDA000020E114A274A00231360274A1360274B8B
:10FDB0005B78002B42D000F0DFF83FE0FFF760FFF8
:10FDC0003CE0234C01232268142601929A431F4BE6
:10FDD000226002921A78802756437F059E19336964
:10FDE0003969181C89B2039305F0E8FA194B051C10
:10FDF000186003983969F3880138C01889B205F092
:10FE0000DDFA854203D1029A0223134303E0019AEB
:10FE100003239A43131C23600F4B1A680F4B002ACD
:10FE200003D121680222114200D000221A70FFF78C
:10FE300081FE03E0074B1868FFF7A4FF05B0F0BD93
:10FE4000782F00207C2F0020842F0020242F0020DA
:10FE5000682F0020502F0020802F00206C2F0020C2
:10FE6000F0B53F4A1421137885B04B43D318D868B6
:10FE70000C22424302903B48802582185489108905
:10FE8000526860436D05821829690192DA881E69FB
:10FE900003921F89344CD3199B19009300232360CC
:10FEA00089B2301C05F0CEFA00290AD12B690398DB
:10FEB0009BB2984208D00099019A914201D1002F3B
:10FEC00002D0029B022B08D12969301C89B205F0AF
:10FED00075FA264B186003233CE02969B81989B2EA
:10FEE00005F0B0FA224B89081960009A019B802422
:10FEF000640529699A422CD089B2101C05F0A2FA37
:10FF0000002926D0019A0098216985B289B290B261
:10FF100005F054FA2769061CB9B2281C05F04EFA00
:10FF2000B6B280B2864208D1019B00989AB283B2E1
:10FF3000D31A0D499B080B600BE023692169281C2B
:10FF400089B29CB205F07EFA89B2641A064AA40806
:10FF50001460022307480370FFF71AFF05B0F0BDD5
:10FF6000242F0020582F0020542F0020502F002035
:10FF7000802F0020782F002008B50B4A1421137819
:10FF80004B43D318D988094A1B791160032B08D039
:10FF9000042B06D0012B06D1054A1370FFF7F8FE9B
:10FFA00001E0FFF75DFF08BD242F0020742F002023
:10FFB000782F0020F7B508AC2488114D01946E7895
:10FFC0000424022E19D02C78A419012C00D9023C4B
:10FFD00014277C432C196261221C20710C3281C9C8
:10FFE00081C2E380074B01981B78208101360024F1
:10FFF0006E70A34201D1FFF7BFFF201CFEBDC046BB
:020000022000DC
:10000000242F0020782F002038B5124C1425217899
:100010000020694361180431FFF798FD21782A1CFC
:100020004A430023A21801251371D380D5601361C0
:10003000536113816278013A62704A19D2B2022A7E
:1000400001D0227000E02370034A1370FFF7A0FE76
:1000500038BDC046242F0020782F002008B5084B5B
:1000600014211A784A439B181B79042B02D0FFF7FE
:10007000CBFF04E0034B01221A70FFF789FE08BD95
:10008000242F0020782F0020F8B51F4D08242E685B
:10009000344023D11D4A142113781D4F4B433F6830
:1000A000D31880211869DA88490504339B880969C7
:1000B000002F16D001388018C01889B205F07EF9DB
:1000C000144B1B6883420CD1134B1C6001231E434D
:1000D000124B2E601C70FFF72DFD13E0FFF774FD2F
:1000E00010E0FFF749FD002804D00B4B00221A60F6
:1000F000022202E0002F03D00322084B1A70EAE725
:10010000FFF7ACFFF8BDC046682F0020242F002069
:10011000542F0020502F0020802F00206C2F002013
:1001200008B5054B1B681A0702D4FFF797FF01E0DB
:10013000FFF74AFD08BDC046682F002038B5154DB1
:100140002C68220723D4144B1A6801321A60134B0F
:1001500004221B68002B04D1FFF70EFD002802D0FB
:1001600002220F4B0CE00F4B1B68002B0CD001211F
:10017000221C0A400A4B02D10C432C6000E00322EF
:100180001A70FFF7D7FC04E0FFF768FF01E0FFF704
:100190001BFD38BD682F0020502F0020802F00202D
:1001A0006C2F0020542F002008B51E4B1B78022B0B
:1001B00030D0032B19D0012B32D11B4B08211A68E8
:1001C0000A4222D1194B14211A784A439A18184B23
:1001D000D1881B68CB1A9BB2D380002B02D1FFF7CA
:1001E00013FF1DE0FFF74CFD1AE00F4B08211A68C2
:1001F0000A420AD10F4B1A6801321A60FFF7BCFCA1
:10020000002804D1FFF72AFF0AE08A431A60FFF7AB
:10021000BFFD05E0084B1A78084B9200D358984769
:1002200008BDC046782F0020682F0020242F002012
:10023000842F0020502F00206C2F0020A48C02005F
:1002400008B5024B1868FFF79DFD08BD502F002030
:1002500008B5FFF75BFC80235B051A691969431E2B
:1002600090B2584389B205F0A9F8FFF78BFD08BD9D
:1002700038B5144C042523781A1CAA4321D002282F
:100280001DD003281DD1104A1268110717D40F4939
:100290000A6801320A60032A04D0022B0CD1FFF74E
:1002A00049FC0EE00A4B14211A780D2051435B18CB
:1002B000191DFFF74BFC2570FFF76AFD01E0FFF702
:1002C00073FF38BD782F0020682F00207C2F00207E
:1002D000242F0020174B10B5012200241C705C70E5
:1002E0001C71DC80DA601C615C611C811C765C83A3
:1002F0001A625C629C629C830F4B1C80FFF706FCB9
:1003000080235B051A69831E90B258430B4B04226D
:1003100018600B4B201C1C600A4B1C601C815C810C
:10032000094B1C70094B1C60094B1C60094B1A607F
:1003300010BDC046242F0020642F0020702F002005
:10034000502F0020582F0020782F00207C2F0020D5
:10035000842F0020682F00202B4BF7B51B680E1C44
:100360000421041C08200B424DD0002C4AD0002E42
:1003700048D02268002A45D080277F053A69A388A3
:1003800092B2934201D907203DE00F2BFBD9E288BE
:10039000002AF8D053431D490D685B190193FFF7FC
:1003A000B5FB3A69431E90B25843019A8242EAD89B
:1003B000A3889907E7D1164A04201788012F22D075
:1003C0000C20784313493760756026680A18556019
:1003D00046501381E08801375081802252055843EE
:1003E000166911691469B2B28018013889B205F032
:1003F00033F8A4B24443054E054B651935601F80A0
:10040000002000E00E20FEBD682F0020702F00208D
:10041000642F0020582F0020114B30B51C68082392
:1004200065071AD5002815D0002A13D00368002BC1
:1004300012D10C4C2568002D0ED0258940686943E7
:1004400009186089454360682D18A94204D21360D9
:10045000516002E00E2300E00723181C30BDC046A7
:10046000682F0020582F0020F0B5141C1C4A051CD2
:10047000126885B00F1C082051072ED5002F2BD0F5
:10048000002D29D02A680720002A26D1154E316870
:10049000002922D06A6803923289718976685143B3
:1004A0008C4603996644B14217D2002C15D0944271
:1004B00013D8E618964210DC0322102017420CD104
:1004C00013420AD1114208D10093291C3A1C231C63
:1004D0000120FFF76FFD00E00E2005B0F0BDC04623
:1004E000682F0020582F0020F0B5141C1C4A051C52
:1004F000126885B00F1C082051072ED5002F2BD075
:10050000002D29D02A680720002A26D1154E3168EF
:10051000002922D06A680392328971897668514332
:100520008C4603996644B14217D2002C15D09442F0
:1005300013D8E618964210DC0322102017420CD183
:1005400013420AD1114208D10093291C3A1C231CE2
:100550000420FFF72FFD00E00E2005B0F0BDC046DF
:10056000682F0020582F0020F0B5161C214A85B0B6
:10057000126802900D1C0824500738D5002931D08C
:10058000029900292ED02C68002C2DD11A4F3A68E0
:10059000002A29D0398978896A684843844678686E
:1005A0008444624520D2002E1ED08E421CD8F01802
:1005B000884219DC02980321084217D10B4215D159
:1005C0001140039112D19918321C04F071FA296874
:1005D0000C234B430096FE58281C0221039A029BD1
:1005E000B04704E00E2402E0072400E01024201CA1
:1005F00005B0F0BD682F0020582F0020F0B5204B2B
:1006000085B01B68061C0D1C08245A0734D5002829
:1006100031D003680724002B2ED11A4B1A68002A08
:100620002AD01A894768029258685B8953431B187D
:1006300003939F4220D21024BB071DD1381A111CEE
:1006400004F000FF0724002916D1281C029904F0A9
:10065000F9FE89B200290FD1002D0DD0039AEB19B4
:10066000934209D8002200920320311C2B1CFFF773
:10067000A1FC041C00E00E24201C05B0F0BDC04607
:10068000682F0020582F00202EDF704751DF704761
:1006900010DF704711DF704761DF704708B5081C35
:1006A000111CFEF7A1F808BDF0B5254B85B01B78ED
:1006B000002B42D0234E244F3268544254413A68B2
:1006C000E4B255425541EDB2002C34D103A8FFF7F6
:1006D000DDFF05280AD0002804D0211C221CFEF7CB
:1006E00085F804E003983368984700E00124002D62
:1006F0001ED1164B03A91B880B80154B1B68181CB9
:100700000193FFF7C9FF051E052D0BD0002805D06A
:1007100000210A1CFEF76AF8002504E001983A68F7
:10072000904700E00125002CCED0002DCCD004E075
:10073000002C02D1C8E7002DDBD005B0F0BDC046CB
:10074000882F0020902F0020942F00208A2F002037
:100750008C2F002038B5041C0720002913D08D07EA
:1007600011D1094801600949201C0A80084A094939
:100770001360FFF78DFF002805D1074B01221620DB
:100780001A70FFF781FF38BD8C2F00208A2F0020C0
:10079000982F00209D060200882F002008B5FFF743
:1007A00079FF021C531E9A41014BD2B21A7008BD48
:1007B000882F0020002803D0024B1860002000E0A2
:1007C0000E207047942F0020002803D0024B1860A1
:1007D000002000E00E207047902F002008B5074B46
:1007E0001B68002B07D09847002806D000210A1C60
:1007F000FDF7FCFF01E0FFF757FF08BD982F002031
:1008000038B5051C0C1C131C291C0248221C00F0C6
:1008100054F838BDB88C020038B50023C356041C08
:100820000D1C013304D1064806492422FFF7E8FFD6
:100830006368002D01D0E26800E02269136038BDD2
:10084000E98C0200018D020000B599B068460F21C5
:1008500000F065F806A80F2100F061F80CA80F2140
:1008600000F05DF812A80F2100F059F86846012148
:10087000FFF7D2FF06A80021FFF7CEFF0CA800214A
:10088000FFF7CAFF12A80121FFF7C6FF962000F06C
:10089000CCF868460021FFF7BFFF06A80121FFF74B
:1008A000BBFF0CA80121FFF7B7FF12A80021FFF73B
:1008B000B3FF962000F0B9F8D8E70FB4012008B5CF
:1008C00004F08CF838B50023C356041C0D1C01330A
:1008D00004D1064806492422FFF792FF6368002DE1
:1008E00001D0E26800E02269136038BDE98C0200A3
:1008F000018D020070B50D1C041C161C00F09CF844
:1009000001350BD0201C311CFFF7DCFF201C01211E
:1009100000F0B0F8201C002100F0A6F870BD08B56A
:100920000022FFF7E7FF08BD38B50368041C1B6809
:100930000D1C984763681D6038BD38B50368041CFA
:10094000DB68984763685A682368002A02D19B686D
:10095000984714E05B681568984763682D1A002D66
:1009600008DC5A68916859601B68002BEAD050680F
:100970009847E7E75B68226818681369984738BDAD
:10098000F8B50D1C72B64B600A60416800234C68D4
:10099000002C05D02768D61B02D4231CA468F7E7D7
:1009A000002B05D103684D601B69101C984700E0BF
:1009B0009D60AC6062B6F8BD08B572B64268536817
:1009C0008B420FD19B6853600268002B02D1936861
:1009D00098470CE018681369984708E09A688A42BB
:1009E00003D0131C002BF9D101E08968996062B62D
:1009F00008BD08B503685B68984708BD00487047A4
:100A0000C08D020008B50248FFF797FF08BDC04639
:100A1000C08D020038B5041C00F04AFD051C00F032
:100A200047FD401BA042FAD338BD08B5FA239B000E
:100A30005843FFF7EFFF08BD01704B1C0AD001239C
:100A40008B404360044BC360044B0361044B436120
:100A5000044B83607047C046080500500C050050E9
:100A6000100500501405005008B5007840B200F0A1
:100A70001FF808BD38B50023C356051C0C1C0133F4
:100A800004D1094809492A22FFF7BAFE002C01D0F7
:100A9000012C07D10022AA56A023C132FF329200B6
:100AA000DB05D45038BDC046E98C0200C88D020079
:100AB00038B5041C0D1C431C04D10A480A491A22EB
:100AC000FFF79EFEA023A000DB05C018E023DB009B
:100AD000C2580C218A43C250C258AD001543C550BC
:100AE00038BDC046EE8C02006E8E020002780D4BBF
:100AF0009200D218A223DB0010B58020D458400306
:100B00002043D050002902D0D158074806E0D058E1
:100B100006490140D150D058802149020143D150AB
:100B200010BDC0460060004003000300FFFFFCFF53
:100B3000114A00211165114A114B1188114A99502F
:100B4000114A1178002904D010490888A821C90049
:100B500058505178002903D00C4948880C49585006
:100B60009278002A04D0094A9188A922D20099508B
:100B700001221A607047C046FCA0004040280020B7
:100B800000A000404C050000AA2F002042280020B1
:100B900044050000164B002210B55A60904210D157
:100BA000144A012198509950134A06219850A122C5
:100BB000D2009850A222D2009950104A1188104AAF
:100BC0009950104A410051308A5AFF3080001A5023
:100BD000C2210D4A890054580C4820408024E40367
:100BE000204350508021C900116001221A6010BDBD
:100BF00000A00040FC0F0000040500004028002079
:100C00004C0500004228002000E100E0FFFF00FF4B
:100C1000E022520010B5A0238418DB05A4000122B5
:100C2000E2500C4C82401A510B4B8900C9180B4AF8
:100C3000A223DB00CA50C046C046C04601230B6059
:100C4000074B00021843A223DB00C850C046C04631
:100C5000C04610BD0C05000000600040031F0200EC
:100C60000300030010B5002A02D0FFF73FFF17E092
:100C700002780C4B9200D218A223DB00D4580A4809
:100C80002040D050002902D0D158084806E0D05862
:100C900007490140D150D058802189020143D150E9
:100CA00010BDC04600600040FFFFEFFF03000300DF
:100CB000FFFFFCFF0378F7B5041CFF2B05D1892249
:100CC0003B483C495200FFF79BFD257801213A4BF8
:100CD0003A4E8D4000201865AE5B394B394F796034
:100CE00001961E88301C05F0BFF9002104F002FFB8
:100CF00004F0CEFC344B82B23048EA522A52002A29
:100D000004D10121E952201C111C14E0B24206D189
:100D1000013A201C0021EA52FFF7E8FE0DE0019D98
:100D2000002D01D0B54208D1019D201CAA1B5642BE
:100D30007241D2B20121FFF795FF8022C123120335
:100D40009B00FA50214A80239B00FA502178204BC7
:100D5000012200203A6058545978814204D19B788E
:100D6000834201D1174B5A6022781A49A023DB0035
:100D7000CE585000C0B201250196471C2E1CBE4023
:100D80008540019F301C28438743CF50617812482B
:100D90009200121849B2A2200023C000C131136092
:100DA000FF311350A0228900D2058B50F7BDC046F9
:100DB0007C90020094900200FCA00040A42F002030
:100DC0004028002000A00040422800200808000021
:100DD000AA2F002000F00140006000402C4BF7B526
:100DE0002C4C00221A650123061C0D1C081C636094
:100DF000002104F0E3FB002809D1FE21281C89050D
:100E000004F0F0FB002803D0FE25AD0500E000252E
:100E1000214B347821491F886400615A381C0191A4
:100E200005F022F9011C281C04F064FE04F030FCDB
:100E30001B4B1A4982B2E2526252002A04D10121AC
:100E4000E152301C111C14E0BA4206D1013A301CA8
:100E50000021E252FFF74AFE0DE0019A002A01D07C
:100E6000BA4208D1019B301CDA1B57427A41D2B2F8
:100E70000121FFF7F7FE07498022C12312039B00DF
:100E8000CA50084A80239B00CA5001230B60F7BD5B
:100E9000FCA0004000A0004040280020A42F00201B
:100EA0004228002008080000CB17104A9B0F0020A2
:100EB000106559180E480F4B01225A6089100E4ACE
:100EC000814202D90121494202E0042900D80521CA
:100ED00011808021C1220903920099500749802284
:100EE0009200995001221A607047C046FCA0004051
:100EF000FFFF000000A0004040280020080800007C
:100F0000F7B5041C0E1C081C514902F0D7FAC5B2F3
:100F1000071CFF2D04D14F484F49ED22FFF770FC0D
:100F20004E4BFFB2D95D012200290FD0597800291C
:100F300002D15A70151C0AE09978002902D19A70E2
:100F4000022504E04648FFF7B8FC00E0DA55301C03
:100F50006670291C2570FFF75BFE42496A00D2B219
:100F6000414BAF007F18561C3F49D000C018B44613
:100F70003E4BF6007618C750F7503D4BAF00FF18B8
:100F8000A223DB00C7503B48F050081CA021C90039
:100F90004658012301961F1C6646B740BC461F1CDD
:100FA00097403A1C6646019F32433A434250002D17
:100FB00002D18022D2059367281CFFF7EBFD201C8D
:100FC0002D49FFF771FF257801222C4B2C4E9540BF
:100FD00000211965AE5B2B4B2B4F7A6001961E8862
:100FE000301C05F041F8002104F084FD04F050FBB2
:100FF000264B234982B2EA526A52002A04D10126C2
:10100000EE52201C111C14E0B24206D1013A201C01
:101010000021EA52FFF76AFD0DE00199002901D095
:10102000B14208D1019B201C9A1B56427241D2B298
:101030000121FFF717FE8022C12312039B00FA5003
:10104000134A80239B00FA5001233B60F7BDC04642
:10105000148F02008190020094900200AA2F0020B9
:101060003C9102000060004000F0014014050000C7
:1010700040A100404CA10040204E0000FCA00040D8
:10108000A42F00204028002000A00040422800207B
:1010900008080000962210B50123D200914203DC1B
:1010A0009E210268C90212E00A4ADC00A458A1424B
:1010B00007DA013BDB00D21801685268064BCA50C0
:1010C00007E00133112BEFD1802102684905024B63
:1010D000D15010BD8091020024050000F8B5314BBD
:1010E000161C0360304AA023DB05051C0F1C0120E1
:1010F0009958B840014399509C58802149000C43AD
:101100009C502A4C1A59104318511A59281C114343
:1011100019511A590121B1408A431A511959244AC7
:101120000A4096211A518901FFF7B4FF2B68214923
:1011300000205850A0210420C90058500121996076
:101140001960191CFC3100220120CA6042421A4871
:101150001A501A4800220A621A5017480A6A012ACD
:10116000FCD10021A1226960D20008219950A2225D
:101170000921D2001F5099501E517A1C03D0381CEF
:101180000321FFF795FC731C03D0301C0321FFF7EC
:101190008FFC0B4B01221A60291C0822094803F01E
:1011A00087FCF8BD00200040040500001405000085
:1011B000FFFDFFFF6C0500000C0500001C05000092
:1011C000B02F0020BC2F0020124AC1239B00D15811
:1011D00010B5080603D51049096A002911D1D35862
:1011E0005A0716D50C4BDA68002A12D00024DC60AE
:1011F000084AA323DB00D058C0B2FCF781F9211CB8
:1012000000E00121054B1868002802D0044B1B6840
:10121000984710BD00200040FC200040B82F00205F
:10122000B42F002030B503681E4C181944426041A9
:101230004000002A1BD0002903D0012905D18021BC
:1012400000E00421C12292009950174BC022920065
:1012500040B29C58C100FF258D40AC43C0258D4055
:10126000291C21439950012282401A6018E000296C
:1012700008D0012914D1C222920080249C509B588E
:101280009B0806E0C2229200042199509B5801213C
:10129000DB09994304D001238340181C034BD86712
:1012A00030BDC04600E0FFBF00E100E004E100E027
:1012B00003681A1CFC32106A0128FAD1002010625F
:1012C000014AC9B2995070471C0500000368FC33FD
:1012D000186A01384342584170470000F7B50E1CA8
:1012E00001930223041C0D1C171C9E43012E13D1D5
:1012F0001F4BA022D205D158301CB8400143D15019
:10130000381C0321FFF7D4FB2368A122D2009F5091
:10131000184A99580E439E50AB1E012B16D8144BF9
:10132000A022019ED2050125D158281CB04081433E
:10133000D150301C0321FFF7BBFB2368A222D2004F
:101340009E500C4A99580D439D500FE0002D0DD131
:1013500023680122A1215242C9005A50A221C9008A
:101360005A50044A0120995881439950F7BDC0460C
:10137000140500006C0500000A490B4A88680B4BF5
:10138000002808D01868013018600020886002200A
:10139000D2218140505006491B6852581806190A3C
:1013A00010437047FC10014000100140C82F00207E
:1013B000040500002F23C046C046C046C046C046B4
:1013C000C046C046C046C046C046C046C046C046ED
:1013D000C046013B002BEED170470000F8B5184B1A
:1013E0009A68002A0AD0174A022011680131116058
:1013F00000229A601449D222824088505B6C124CC1
:10140000002B1CD00E4B8025D222920000266D02AC
:101410005E64A5500D4A1378B34210D00C4B1F6880
:10142000FFF7AAFF3F1AB74209DC084BD2221E7011
:10143000C2239B009200E550A550FFF7E3FAF8BDE8
:10144000FC100140C82F002000100140CD2F0020CB
:10145000C42F002038B5124C2278002A1FD1114B1E
:10146000A121C9005A500222D22191405A50C121D3
:1014700091405A500C4AC421890055580B482840C5
:10148000C0252D02284350508021C02089024000F1
:101490000125115011601D60FFF78CFF257038BDCC
:1014A000CC2F00200010014000E100E0FF00FFFF12
:1014B00008B50B4B1B78002B01D1FFF7CBFFFFF7D3
:1014C0005BFF064B044A04F0C1F84904C00B084313
:1014D00008BDC046C046C04640420F0000000000A4
:1014E000CC2F0020C046C0462F4B70B51B78061C81
:1014F000002B01D1FFF7AEFFFFF73EFF254B244A3B
:1015000004F0A4F84B04C00B002400251843CD0BB5
:101510000023321CA4185D4180231B06984205D984
:10152000002E03DB1C4A1D4BA4185D41610CEB032C
:101530000B43E2031A481B4980185941154B144AC2
:1015400004F064F8194D041C2B78194E002B02D0BE
:10155000336898421BD0FFF70FFF201A022802DCE5
:10156000FFF70AFF841C2102124BA822D200090AAD
:1015700099502A783460002A09D101222A70D22198
:101580008022520289005A50C12189005A5070BDF0
:1015900040420F00000000000000000001000000B9
:1015A0003F420F0000000000CC2F0020CD2F002074
:1015B000C42F002000100140074B1A78002A0AD0DF
:1015C000064A8021C220490280001150D2208000AA
:1015D000115000221A707047CD2F002000100140DA
:1015E000024B00229A605A647047C046FC100140CA
:1015F00008B5FBF723FBFBF759FBFCE7FF23172894
:1016000001D8024B1B5C58B27047C04610920200D2
:1016100010B50021041C402203F06CFA221C403259
:101620000023201C1370537010BD0000F7B5FA267C
:101630000093B60008AB041C1B78301C48431449C7
:10164000171C019303F0BAFE85B2301C2580784345
:101650000F4903F0B3FE009B80B2A380019B608022
:10166000A371032D01D80423238022888023DB016A
:101670009A4200D92380032801D80422628062881C
:101680009A4202D98023DB016380201CFEBDC04644
:101690007102000093DF704708B50368002B01D08A
:1016A000081C984708BD08B50368002B01D0081C2A
:1016B000984708BD10B50B78041C03704B8A1022A4
:1016C00043820131013003F0F3F9201C10BD38B51D
:1016D00002680B68051C0C1C9A4201D000202CE00B
:1016E0000379002B07D10B79002BF7D1C28ACB8A63
:1016F0009A42F3D10BE0012BF0D10B79012BEDD104
:1017000005300531102203F0C4F90028E6D12A7E05
:10171000217E7F231A400B409A42DFD16A8B638B74
:101720009A42DBD1EA69E36900209A4205D1238C11
:10173000288CC01A43425841C0B238BD70B5051C50
:101740000E1C00242819311CFFF7C1FF002803D10B
:101750004C34E42CF6D100E0012070BD07B501AB9C
:101760001980191C5A80FFF795FF10280CD003D858
:10177000002398420BD009E00523112807D0054A21
:101780000423904203D001E0032300E00B23181C44
:101790000EBDC0460230000070B50025041C291C97
:1017A00020C0FCF7B1FB0C26201C291C321C25761E
:1017B0006583A583E5832584243003F09BF9074BDB
:1017C000201C65632363291C321C383003F092F916
:1017D000034BA564201C636470BDC04699160200CB
:1017E000A716020010B5041CFFF7D6FF201C4C30D2
:1017F000FFF7D2FF201C9830FFF7CEFF201C10BD52
:10180000F8B50D1C1E1C08C9041C08C0171CFFF7E6
:1018100051FF2B7E3A1C23766B8B6383AB8BA383A8
:10182000EB8BE3832B8C2384231C243323CA23C315
:10183000FF68002227636263311C0833A1C9A1C37A
:10184000F668201C6664A264F8BD70B50E1C8AB0F0
:101850000168041C038C0190684603AD03911230AB
:10186000111CAB80FFF726FF201C6E8302952430ED
:10187000236B01A998470AB070BD07B5031C6A46DF
:101880000090117138305B6C6946984707BDF0B520
:10189000A7B00B790C1C086869460B71E38A0090AD
:1018A0006846161CCB821022611D053003F000F93A
:1018B000237E6D462B76638B221C6B83A38B243295
:1018C000AB83E38BEB83238C2B8409ABA1CAA1C32D
:1018D000216B00250C910D950EAB083283CA83C392
:1018E000626C13A811921295FFF756FF13A9201CE2
:1018F000222203F0DDF8231C1CAA243383CA83C3ED
:101900001F9A65632263083321AA83CA83C3249A7A
:10191000A56462646846311CFFF7AFFF27B0F0BDD5
:1019200030B595B0041C01A8FFF736FF201C01A9B3
:10193000FFF7CDFE0025A84218D00D9A236B9A42DE
:1019400014D1211C0AA824310C2203F0A2F8A842C9
:101950000CD1129B626C934208D1211C38310FA824
:101960000C2203F096F845424541EDB2281C15B013
:1019700030BDF8B5061C0F1C00257419201C391C3D
:10198000FFF7A5FE002804D0201CFFF7C9FF0028A0
:1019900003D04C35E42DF0D10024201CF8BD10B547
:1019A000041CFFF7E6FF011E03D0201C0022FFF7F6
:1019B0006EFF10BDF8B50F1C041C0325238C261CDC
:1019C000BB4204D1201CFFF7ABFF002804D0013D2F
:1019D0004C34002DF2D12E1C301CF8BD38B5041C3F
:1019E000151CFFF7E7FF011E03D0201C2A1CFFF780
:1019F0004EFF38BD08B5FFF7DDFF431E9841C0B26A
:101A000008BDF0B589B0061C0091171CFFF7D2FF86
:101A1000041E2AD000253A88062395420FD26B4334
:101A2000FB185A88998803A801920135FCF76CFAD3
:101A3000201C019903AAFFF708FFADB2EBE7013ABA
:101A40005343FF187988E28B013189B2914203D95F
:101A5000301C211C002206E00098FFF77FFE021ECA
:101A600003D0301C211CFFF712FF09B0F0BD70B588
:101A7000061C00243519281CFFF752FF002803D14B
:101A80004C34E42CF6D1051C281C70BDF0B51E1C8E
:101A90004B8B041C0233C88B99B09BB20D1C039274
:101AA0000F8C01930290984207D200270591069768
:101AB000F368301C05A998472DE0201C391CFFF75E
:101AC00099FF002801D0052725E0201CFFF7CFFF54
